:020000040000FA
:100000000070002095040000A7040000A90400006F
:10001000AB040000AD040000AF04000000000000CD
:10002000000000000000000000000000B10400001B
:10003000B304000000000000B5040000B704000095
:10004000B9040000B9040000B9040000B9040000BC
:10005000B9040000B9040000B9040000B9040000AC
:10006000B9040000B9040000B9040000B90400009C
:10007000B9040000B9040000B9040000B90400008C
:1003F000B9040000B9040000B9040000FFFFFFFFCA
:020000040000FA
:10040000FFFFFFFFFFFFFFFFFFFFFFFFFE7FFFFF7D
:020000040000FA
:1004100000F002F800F02DF80AA090E8000C8244E9
:100420008344AAF10107DA4501D100F022F8AFF2C6
:10043000090EBAE80F0013F0010F18BFFB1A43F0C2
:1004400001031847C0060000E0060000103A24BF70
:1004500078C878C1FAD8520724BF30C830C144BF29
:1004600004680C6070471FB500F044FB1FBD10B559
:1004700010BDDFF810D0FFF7F6FF00F0B9FA00F07A
:1004800025F800000070002003B4FFF7F0FF03BC64
:1004900000F026F8094872B60948804709488047A5
:1004A00062B609480047FEE7FEE7FEE7FEE7FEE723
:1004B000FEE7FEE7FEE7FEE7FEE7000000040000BF
:1004C0005D0900009D0900001104000010B50446FC
:1004D000AFF300802046BDE81040FFF7D5BF70475E
:1004E00001491820ABBEFEE72600020044F2010CD1
:1004F000C2F2000C6047000070B504460D4624B9F6
:100500006D4908046D4E30600EE0012C05D16C4938
:1005100088046A4E361D306006E0022C04D1694919
:100520006007664E1C36306074B96748406940F217
:1005300003563043644E70613046006940F2035602
:100540003043614E306120E0012C0ED15F48406B9A
:1005500040F2033630435D4E70633046006B40F22C
:1005600003363043594E30630FE0022C0DD158480A
:10057000406B40F203463043554E70633046006B8B
:1005800040F203463043524E3063086840F000406A
:100590000860486820F400504860086820F0004077
:1005A0000860086880F00070086000BF086800F00C
:1005B00000700028FAD1086840F0804008600868A0
:1005C00040F08050086000BF086800F0807000288C
:1005D000FAD0B5F57A7F02D33E48486007E0B5F51A
:1005E000FA7F02D33C48486001E03C484860002064
:1005F00008618864002206E0002601F5086040F8E2
:100600002260501CC2B2102AF6DB086840F40030A9
:100610000860086840F00F000860086840F000506B
:1006200008604FF42000486301F1800300221CE0C1
:1006300003F1600050F8220000F0404603F1600032
:1006400040F8226050F8220062F39E7003F16006C9
:1006500046F82200304650F8220020F0004603F110
:10066000600040F82260501CC2B2082AE0DB002281
:100670000FE003F1800000EB0210006820F07060D2
:1006800000F1006003F1800606EB02163060501C9A
:10069000C2B2082AEDDB086820F08040086000BF85
:1006A000086800F080700028FAD100BF086800F0E8
:1006B00000600028FAD170BD004002409050064012
:1006C0000050024000B0024000D0044000900440BE
:1006D00000A0044003000100030001010300010326
:1006E00070B504460D4616460CB91B4A06E0012CAF
:1006F00001D11A4A02E0022C00D1194A02F180010C
:10070000106B00F0200008B9012070BD486820F08F
:10071000604028600868C0F3405010B92868800C19
:1007200028600868C0F303403070C87A1870887A6F
:100730005870487A9870087AD870C87B1871887B8E
:100740005871487B9871087BD871106B40F020007D
:1007500010630020D9E70000004002400050024032
:1007600000B002402DE9F04105460E4617469C4672
:10077000069C0DB9604B06E0012D01D15F4B02E0F4
:10078000022D00D15E4B03F18002002115E002F141
:10079000800000EB01100068C0F30360082800D15E
:1007A0000DE002F1800000EB01100068C0F303606F
:1007B000092800D103E0481C81B20829E7DB00BF0B
:1007C000082902D10120BDE8F0816EB102F180005C
:1007D00000EB0110406867F31C0002F1800808EB91
:1007E0000118C8F804000EE04FEA874802F18000C3
:1007F00000EB0110406868F31C0002F1800808EB70
:100800000118C8F8040002F1800000EB0110006834
:100810006CF3134002F1800808EB0118C8F80000DF
:1008200094F8008002F1800000EB011080F80B804A
:1008300094F8018002F1800000EB011080F80A803A
:1008400094F8028002F1800000EB011080F809802A
:1008500094F8038002F1800000EB011080F808801A
:1008600094F8048002F1800000EB011080F80F8002
:1008700094F8058002F1800000EB011080F80E80F2
:1008800094F8068002F1800000EB011080F80D80E2
:1008900094F8078002F1800000EB011080F80C80D2
:1008A00002F1800000EB0110006866F3555002F180
:1008B000800808EB0118C8F8000002F1800000EB86
:1008C0000110006820F4801802F1800000EB011094
:1008D000C0F8008002F1800000EB0110006820F0F9
:1008E000706000F1406002F1800808EB0118C8F860
:1008F0000000002067E70000004002400050024076
:1009000000B002404FF08040064908600649C1F837
:100910002801044908310860091D0860091D0860A4
:1009200070470000245106400050064030B54FF497
:10093000807441F822404469012595402C4344616C
:10094000012B05D14468012595402C43446004E007
:100950008468012595402C43846030BD0B480068B5
:1009600040F47000094908600948006820F08040A0
:10097000074908600748084948600846406842F24D
:10098000201008604FF6FF708860704788ED00E027
:1009900034EF00E020C528D90020054008B5104AF2
:1009A0001268009200210F4A0F4B9A4213D0002088
:1009B00006E00D4A52F820200A4B43F82020401C44
:1009C0000A4A084BD21AB0EB920FF2D31A465DF8DE
:1009D00021301A6003E0044A5DF821301A6008BD36
:1009E000000B000000000000000000000080FF1F5E
:1009F00008B50024FFF77AFDFFF784FFFA210020F5
:100A0000FFF77AFDFA210120FFF776FDFA21022097
:100A1000FFF772FD00BF641C04F4803030B900237E
:100A20001A4626492648FFF781FF05E001230022E8
:100A300022492348FFF77AFF224B234A234900200B
:100A4000FFF74EFE224908700846007848B91D4855
:100A500000901D4803781D48012102680020FFF71F
:100A600081FE1C4B1C4A1D490120FFF739FE1C4921
:100A700008700846007848B9164800901648037870
:100A80001648012102680846FFF76CFE154B164A0E
:100A900016490220FFF724FE154908700846007821
:100AA0000028B8D10F4800900F4803780F48012163
:100AB00002680220FFF756FEADE7000000A00440E8
:100AC00040F00F401880FF1F3C80FF1F3880FF1F41
:100AD0003F80FF1F2080FF1F3D80FF1F3080FF1FD2
:100AE0004080FF1F2880FF1F3E80FF1F3480FF1FB4
:100AF0004180FF1F4FF04070E1EE100A7047000088
:100B000008ED00E0240B000000400020C0000000C1
:100B10004C040000E40B00000080FF1F50000000A8
:100B20004C04000000B500F015F800F035F800F0B6
:100B300001F800BD05480649486100BF0448006946
:100B4000C0F303600628F9D17047000012000106C7
:100B50000040064040F201100D49086024200D4974
:100B6000C1F8080100BF0A48001F006800F4000037
:100B70000028F8D101200649091F086000BF044879
:100B8000001F006800F080700028F8D07047000057
:100B9000044106400040064000BF1148006800F4D0
:100BA00000000028F9D10E49086040F20230091D0A
:100BB00008604FF4C010091D086000BF08480068B5
:100BC00000F400000028F9D101200549086000BFA9
:100BD0000348006800F080700028F9D070470000DA
:100BE000004606401122334455667788112233446B
:100BF00055667788887766554433221100000000D7
:100C000000000000000000000000000000000000E4
:100C100000000000000000000000000000000000D4
:100C2000000000000000010801070003010F010E91
:040C300001090000B6
:0400000500000411E2
:00000001FF
